{
    "contractName": "Wife",
    "abi": [
        {
            "inputs": [],
            "stateMutability": "nonpayable",
            "type": "constructor"
        },
        {
            "inputs": [
                {
                    "internalType": "uint256",
                    "name": "requested",
                    "type": "uint256"
                },
                {
                    "internalType": "uint256",
                    "name": "available",
                    "type": "uint256"
                }
            ],
            "name": "InsufficientBalance",
            "type": "error"
        },
        {
            "anonymous": false,
            "inputs": [
                {
                    "indexed": false,
                    "internalType": "address",
                    "name": "from",
                    "type": "address"
                },
                {
                    "indexed": false,
                    "internalType": "address",
                    "name": "to",
                    "type": "address"
                },
                {
                    "indexed": false,
                    "internalType": "uint256",
                    "name": "amount",
                    "type": "uint256"
                }
            ],
            "name": "Sent",
            "type": "event"
        },
        {
            "inputs": [
                {
                    "internalType": "address",
                    "name": "",
                    "type": "address"
                }
            ],
            "name": "balances",
            "outputs": [
                {
                    "internalType": "uint256",
                    "name": "",
                    "type": "uint256"
                }
            ],
            "stateMutability": "view",
            "type": "function"
        },
        {
            "inputs": [
                {
                    "internalType": "address",
                    "name": "receiver",
                    "type": "address"
                },
                {
                    "internalType": "uint256",
                    "name": "amount",
                    "type": "uint256"
                }
            ],
            "name": "mint",
            "outputs": [],
            "stateMutability": "nonpayable",
            "type": "function"
        },
        {
            "inputs": [],
            "name": "minter",
            "outputs": [
                {
                    "internalType": "address",
                    "name": "",
                    "type": "address"
                }
            ],
            "stateMutability": "view",
            "type": "function"
        },
        {
            "inputs": [
                {
                    "internalType": "address",
                    "name": "receiver",
                    "type": "address"
                },
                {
                    "internalType": "uint256",
                    "name": "amount",
                    "type": "uint256"
                }
            ],
            "name": "sendToWife",
            "outputs": [],
            "stateMutability": "nonpayable",
            "type": "function"
        },
        {
            "inputs": [],
            "name": "wifesAddress",
            "outputs": [
                {
                    "internalType": "address",
                    "name": "",
                    "type": "address"
                }
            ],
            "stateMutability": "view",
            "type": "function"
        }
    ],
    "bytecode": "608060405234801561001057600080fd5b50600080546001600160a01b03199081163317909155600280549091167378731d3ca6b7e34ac0f824c42a7cc18a495cabab17905561032d806100546000396000f3fe608060405234801561001057600080fd5b50600436106100575760003560e01c80630289af2b1461005c578063075461721461007157806327e235e3146100a157806340c10f19146100cf578063ead4b6c8146100e2575b600080fd5b61006f61006a366004610288565b6100f5565b005b600054610084906001600160a01b031681565b6040516001600160a01b0390911681526020015b60405180910390f35b6100c16100af366004610266565b60016020526000908152604090205481565b604051908152602001610098565b61006f6100dd366004610288565b610202565b600254610084906001600160a01b031681565b6002546001600160a01b0383811691161461010f57600080fd5b3360009081526001602052604090205481111561016457336000908152600160205260409081902054905163cf47918160e01b815261015b918391600401918252602082015260400190565b60405180910390fd5b33600090815260016020526040812080548392906101839084906102ca565b90915550506001600160a01b038216600090815260016020526040812080548392906101b09084906102b2565b9091555050604080513381526001600160a01b03841660208201529081018290527f3990db2d31862302a685e8086b5755072a6e2b5b780af1ee81ece35ee3cd33459060600160405180910390a15050565b6000546001600160a01b0316331461021957600080fd5b6001600160a01b038216600090815260016020526040812080548392906102419084906102b2565b90915550505050565b80356001600160a01b038116811461026157600080fd5b919050565b60006020828403121561027857600080fd5b6102818261024a565b9392505050565b6000806040838503121561029b57600080fd5b6102a48361024a565b946020939093013593505050565b600082198211156102c5576102c56102e1565b500190565b6000828210156102dc576102dc6102e1565b500390565b634e487b7160e01b600052601160045260246000fdfea2646970667358221220a09a22ed48d27b55cd1dc2b41e97ebedad3a33a717a4f11e4fb3f93a4a17c6b164736f6c63430008070033",
    "sourcePath": "/home/shwyfft/work/smart-contracts/contracts/Wife.sol",
    "compiler": {
        "name": "solc",
        "version": "0.8.7+commit.e28d00a7"
    },
    "functionHashes": {
        "balances(address)": "27e235e3",
        "mint(address,uint256)": "40c10f19",
        "minter()": "07546172",
        "sendToWife(address,uint256)": "0289af2b",
        "wifesAddress()": "ead4b6c8"
    },
    "gasEstimates": {
        "creation": {
            "codeDepositCost": "162600",
            "executionCost": "48676",
            "totalCost": "211276"
        },
        "external": {
            "balances(address)": "2541",
            "mint(address,uint256)": "26896",
            "minter()": "2326",
            "sendToWife(address,uint256)": "55025",
            "wifesAddress()": "2392"
        }
    }
}